{
  "contractName": "Place",
  "abi": [
    {
      "inputs": [
        {
          "internalType": "address",
          "name": "_recognisedAuthority",
          "type": "address"
        }
      ],
      "stateMutability": "nonpayable",
      "type": "constructor"
    },
    {
      "anonymous": false,
      "inputs": [
        {
          "indexed": false,
          "internalType": "address",
          "name": "user",
          "type": "address"
        },
        {
          "indexed": false,
          "internalType": "contract VisitIf",
          "name": "newVisit",
          "type": "address"
        }
      ],
      "name": "visitFromEvent",
      "type": "event"
    },
    {
      "inputs": [],
      "name": "owner",
      "outputs": [
        {
          "internalType": "address",
          "name": "",
          "type": "address"
        }
      ],
      "stateMutability": "view",
      "type": "function"
    },
    {
      "inputs": [
        {
          "internalType": "contract VisitIf",
          "name": "infectedVisit",
          "type": "address"
        }
      ],
      "name": "notifyRisk",
      "outputs": [],
      "stateMutability": "nonpayable",
      "type": "function"
    },
    {
      "inputs": [
        {
          "internalType": "address",
          "name": "user",
          "type": "address"
        },
        {
          "internalType": "uint256",
          "name": "timestamp",
          "type": "uint256"
        }
      ],
      "name": "visitFrom",
      "outputs": [
        {
          "internalType": "contract VisitIf",
          "name": "",
          "type": "address"
        }
      ],
      "stateMutability": "nonpayable",
      "type": "function"
    },
    {
      "inputs": [],
      "name": "clean",
      "outputs": [],
      "stateMutability": "nonpayable",
      "type": "function"
    }
  ],
  "bytecode": "0x60806040523480156200001157600080fd5b506040516200191f3803806200191f8339818101604052810190620000379190620000d6565b336000806101000a81548173ffffffffffffffffffffffffffffffffffffffff021916908373ffffffffffffffffffffffffffffffffffffffff16021790555080600260006101000a81548173ffffffffffffffffffffffffffffffffffffffff021916908373ffffffffffffffffffffffffffffffffffffffff1602179055505062000150565b600081519050620000d08162000136565b92915050565b600060208284031215620000e957600080fd5b6000620000f984828501620000bf565b91505092915050565b60006200010f8262000116565b9050919050565b600073ffffffffffffffffffffffffffffffffffffffff82169050919050565b620001418162000102565b81146200014d57600080fd5b50565b6117bf80620001606000396000f3fe60806040523480156200001157600080fd5b5060043610620000525760003560e01c80634c6c8f0514620000575780638da5cb5b146200008d578063a5ac84c414620000af578063fc4333cd14620000cf575b600080fd5b6200007560048036038101906200006f919062000bbf565b620000db565b60405162000084919062000da9565b60405180910390f35b6200009762000257565b604051620000a6919062000d22565b60405180910390f35b620000cd6004803603810190620000c7919062000c00565b62000280565b005b620000d96200062e565b005b60003373ffffffffffffffffffffffffffffffffffffffff1660008054906101000a900473ffffffffffffffffffffffffffffffffffffffff1673ffffffffffffffffffffffffffffffffffffffff16146200016e576040517f08c379a0000000000000000000000000000000000000000000000000000000008152600401620001659062000de8565b60405180910390fd5b6000308484604051620001819062000aa7565b6200018f9392919062000d6c565b604051809103906000f080158015620001ac573d6000803e3d6000fd5b5090506001819080600181540180825580915050600190039060005260206000200160009091909190916101000a81548173ffffffffffffffffffffffffffffffffffffffff021916908373ffffffffffffffffffffffffffffffffffffffff1602179055507f891d8a35d7edf41413e6aab32dca1e4e813714d1aded01690ee381774dbc0c4f84826040516200024592919062000d3f565b60405180910390a18091505092915050565b60008060009054906101000a900473ffffffffffffffffffffffffffffffffffffffff16905090565b600260009054906101000a900473ffffffffffffffffffffffffffffffffffffffff1673ffffffffffffffffffffffffffffffffffffffff163373ffffffffffffffffffffffffffffffffffffffff161462000313576040517f08c379a00000000000000000000000000000000000000000000000000000000081526004016200030a9062000dc6565b60405180910390fd5b6000805b600180549050811015620003da578180620003c257508273ffffffffffffffffffffffffffffffffffffffff16600182815481106200037f577f4e487b7100000000000000000000000000000000000000000000000000000000600052603260045260246000fd5b9060005260206000200160009054906101000a900473ffffffffffffffffffffffffffffffffffffffff1673ffffffffffffffffffffffffffffffffffffffff16145b91508080620003d19062000f9f565b91505062000317565b50806200041e576040517f08c379a0000000000000000000000000000000000000000000000000000000008152600401620004159062000e0a565b60405180910390fd5b60005b60018054905081101562000629576000600182815481106200046c577f4e487b7100000000000000000000000000000000000000000000000000000000600052603260045260246000fd5b9060005260206000200160009054906101000a900473ffffffffffffffffffffffffffffffffffffffff169050620005a98173ffffffffffffffffffffffffffffffffffffffff1663188ec3566040518163ffffffff1660e01b815260040160206040518083038186803b158015620004e457600080fd5b505afa158015620004f9573d6000803e3d6000fd5b505050506040513d601f19601f820116820180604052508101906200051f919062000c2c565b8573ffffffffffffffffffffffffffffffffffffffff1663188ec3566040518163ffffffff1660e01b8152600401602060405180830381600087803b1580156200056857600080fd5b505af11580156200057d573d6000803e3d6000fd5b505050506040513d601f19601f82011682018060405250810190620005a3919062000c2c565b62000a3b565b1562000612578073ffffffffffffffffffffffffffffffffffffffff16633b59b8236040518163ffffffff1660e01b8152600401600060405180830381600087803b158015620005f857600080fd5b505af11580156200060d573d6000803e3d6000fd5b505050505b508080620006209062000f9f565b91505062000421565b505050565b3373ffffffffffffffffffffffffffffffffffffffff1660008054906101000a900473ffffffffffffffffffffffffffffffffffffffff1673ffffffffffffffffffffffffffffffffffffffff1614620006bf576040517f08c379a0000000000000000000000000000000000000000000000000000000008152600401620006b69062000de8565b60405180910390fd5b606060005b60018054905081101562000a1e57620007c46001828154811062000711577f4e487b7100000000000000000000000000000000000000000000000000000000600052603260045260246000fd5b9060005260206000200160009054906101000a900473ffffffffffffffffffffffffffffffffffffffff1673ffffffffffffffffffffffffffffffffffffffff1663188ec3566040518163ffffffff1660e01b815260040160206040518083038186803b1580156200078257600080fd5b505afa15801562000797573d6000803e3d6000fd5b505050506040513d601f19601f82011682018060405250810190620007bd919062000c2c565b4262000a3b565b1562000a0857600060018351620007dc919062000e3d565b67ffffffffffffffff8111156200081c577f4e487b7100000000000000000000000000000000000000000000000000000000600052604160045260246000fd5b6040519080825280602002602001820160405280156200084b5781602001602082028036833780820191505090505b50905060005b8351811015620009275783818151811062000895577f4e487b7100000000000000000000000000000000000000000000000000000000600052603260045260246000fd5b6020026020010151828281518110620008d7577f4e487b7100000000000000000000000000000000000000000000000000000000600052603260045260246000fd5b602002602001019073ffffffffffffffffffffffffffffffffffffffff16908173ffffffffffffffffffffffffffffffffffffffff168152505080806200091e9062000f9f565b91505062000851565b506001828154811062000963577f4e487b7100000000000000000000000000000000000000000000000000000000600052603260045260246000fd5b9060005260206000200160009054906101000a900473ffffffffffffffffffffffffffffffffffffffff1681845181518110620009c9577f4e487b7100000000000000000000000000000000000000000000000000000000600052603260045260246000fd5b602002602001019073ffffffffffffffffffffffffffffffffffffffff16908173ffffffffffffffffffffffffffffffffffffffff1681525050809250505b808062000a159062000f9f565b915050620006c4565b50806001908051906020019062000a3792919062000ab5565b5050565b6000818310801562000a5c575062127500838362000a5a919062000e9a565b105b1562000a6c576001905062000aa1565b82821115801562000a8c575062127500828462000a8a919062000e9a565b105b1562000a9c576001905062000aa1565b600090505b92915050565b610658806200113283390190565b82805482825590600052602060002090810192821562000b31579160200282015b8281111562000b305782518260006101000a81548173ffffffffffffffffffffffffffffffffffffffff021916908373ffffffffffffffffffffffffffffffffffffffff1602179055509160200191906001019062000ad6565b5b50905062000b40919062000b44565b5090565b5b8082111562000b5f57600081600090555060010162000b45565b5090565b60008135905062000b7481620010e3565b92915050565b60008135905062000b8b81620010fd565b92915050565b60008135905062000ba28162001117565b92915050565b60008151905062000bb98162001117565b92915050565b6000806040838503121562000bd357600080fd5b600062000be38582860162000b63565b925050602062000bf68582860162000b91565b9150509250929050565b60006020828403121562000c1357600080fd5b600062000c238482850162000b7a565b91505092915050565b60006020828403121562000c3f57600080fd5b600062000c4f8482850162000ba8565b91505092915050565b62000c638162000ed5565b82525050565b62000c748162000f27565b82525050565b62000c858162000f4f565b82525050565b62000c968162000f77565b82525050565b600062000cab602b8362000e2c565b915062000cb8826200101c565b604082019050919050565b600062000cd260208362000e2c565b915062000cdf826200106b565b602082019050919050565b600062000cf960248362000e2c565b915062000d068262001094565b604082019050919050565b62000d1c8162000f1d565b82525050565b600060208201905062000d39600083018462000c58565b92915050565b600060408201905062000d56600083018562000c58565b62000d65602083018462000c8b565b9392505050565b600060608201905062000d83600083018662000c69565b62000d92602083018562000c58565b62000da1604083018462000d11565b949350505050565b600060208201905062000dc0600083018462000c7a565b92915050565b6000602082019050818103600083015262000de18162000c9c565b9050919050565b6000602082019050818103600083015262000e038162000cc3565b9050919050565b6000602082019050818103600083015262000e258162000cea565b9050919050565b600082825260208201905092915050565b600062000e4a8262000f1d565b915062000e578362000f1d565b9250827fffffffffffffffffffffffffffffffffffffffffffffffffffffffffffffffff0382111562000e8f5762000e8e62000fed565b5b828201905092915050565b600062000ea78262000f1d565b915062000eb48362000f1d565b92508282101562000eca5762000ec962000fed565b5b828203905092915050565b600062000ee28262000efd565b9050919050565b600062000ef68262000ed5565b9050919050565b600073ffffffffffffffffffffffffffffffffffffffff82169050919050565b6000819050919050565b600062000f348262000f3b565b9050919050565b600062000f488262000efd565b9050919050565b600062000f5c8262000f63565b9050919050565b600062000f708262000efd565b9050919050565b600062000f848262000f8b565b9050919050565b600062000f988262000efd565b9050919050565b600062000fac8262000f1d565b91507fffffffffffffffffffffffffffffffffffffffffffffffffffffffffffffffff82141562000fe25762000fe162000fed565b5b600182019050919050565b7f4e487b7100000000000000000000000000000000000000000000000000000000600052601160045260246000fd5b7f506c6163653a2063616c6c6572206973206e6f742061207265636f676e69736560008201527f6420617574686f72697479000000000000000000000000000000000000000000602082015250565b7f4f776e61626c653a2063616c6c6572206973206e6f7420746865206f776e6572600082015250565b7f506c6163653a2063616c6c6572206973206e6f74206120747261636b6564207660008201527f6973697400000000000000000000000000000000000000000000000000000000602082015250565b620010ee8162000ed5565b8114620010fa57600080fd5b50565b620011088162000ee9565b81146200111457600080fd5b50565b620011228162000f1d565b81146200112e57600080fd5b5056fe608060405234801561001057600080fd5b506040516106583803806106588339818101604052810190610032919061015c565b336000806101000a81548173ffffffffffffffffffffffffffffffffffffffff021916908373ffffffffffffffffffffffffffffffffffffffff16021790555060008060146101000a81548160ff02191690831515021790555082600160006101000a81548173ffffffffffffffffffffffffffffffffffffffff021916908373ffffffffffffffffffffffffffffffffffffffff16021790555081600260006101000a81548173ffffffffffffffffffffffffffffffffffffffff021916908373ffffffffffffffffffffffffffffffffffffffff1602179055508060038190555050505061023e565b60008151905061012c816101f9565b92915050565b60008151905061014181610210565b92915050565b60008151905061015681610227565b92915050565b60008060006060848603121561017157600080fd5b600061017f86828701610132565b93505060206101908682870161011d565b92505060406101a186828701610147565b9150509250925092565b60006101b6826101cf565b9050919050565b60006101c8826101ab565b9050919050565b600073ffffffffffffffffffffffffffffffffffffffff82169050919050565b6000819050919050565b610202816101ab565b811461020d57600080fd5b50565b610219816101bd565b811461022457600080fd5b50565b610230816101ef565b811461023b57600080fd5b50565b61040b8061024d6000396000f3fe608060405234801561001057600080fd5b50600436106100625760003560e01c8063188ec356146100675780633b59b823146100855780634f8632ba1461008f5780638da5cb5b146100ad5780638e145714146100cb57806393cca918146100e9575b600080fd5b61006f610107565b60405161007c9190610314565b60405180910390f35b61008d610111565b005b6100976101bc565b6040516100a491906102a3565b60405180910390f35b6100b56101e2565b6040516100c291906102a3565b60405180910390f35b6100d361020b565b6040516100e091906102be565b60405180910390f35b6100f161021e565b6040516100fe91906102d9565b60405180910390f35b6000600354905090565b3373ffffffffffffffffffffffffffffffffffffffff1660008054906101000a900473ffffffffffffffffffffffffffffffffffffffff1673ffffffffffffffffffffffffffffffffffffffff161461019f576040517f08c379a0000000000000000000000000000000000000000000000000000000008152600401610196906102f4565b60405180910390fd5b6001600060146101000a81548160ff021916908315150217905550565b600260009054906101000a900473ffffffffffffffffffffffffffffffffffffffff1681565b60008060009054906101000a900473ffffffffffffffffffffffffffffffffffffffff16905090565b600060149054906101000a900460ff1681565b600160009054906101000a900473ffffffffffffffffffffffffffffffffffffffff1681565b61024d81610340565b82525050565b61025c81610352565b82525050565b61026b81610388565b82525050565b600061027e60208361032f565b9150610289826103ac565b602082019050919050565b61029d8161037e565b82525050565b60006020820190506102b86000830184610244565b92915050565b60006020820190506102d36000830184610253565b92915050565b60006020820190506102ee6000830184610262565b92915050565b6000602082019050818103600083015261030d81610271565b9050919050565b60006020820190506103296000830184610294565b92915050565b600082825260208201905092915050565b600061034b8261035e565b9050919050565b60008115159050919050565b600073ffffffffffffffffffffffffffffffffffffffff82169050919050565b6000819050919050565b60006103938261039a565b9050919050565b60006103a58261035e565b9050919050565b7f4f776e61626c653a2063616c6c6572206973206e6f7420746865206f776e657260008201525056fea2646970667358221220f217cdf85f45e0ba6fdbbc28df35603a940450ebd6c3e25dee1ecb74112347fc64736f6c63430008010033a26469706673582212205d38b98d070422bb27bfc332ed8182efa7fd7185fb8bdc571596d4e6438d929164736f6c63430008010033",
  "immutableReferences": {},
  "source": "// SPDX-License-Identifier: UNLICENSED\n/*\nmigrate\nlet accounts = await web3.eth.getAccounts()\nlet instance = await Place.deployed()\nlet dummyCreds = await NHSCredentials.deployed()\nlet visit = await instance.visitFrom(accounts[0],1000)\nlet v1 = await Visit.at(visit.logs[0].args['1'])\nlet otherVisit = await instance.visitFrom(accounts[0],1000)\nlet v2 = await Visit.at(otherVisit.logs[0].args['1'])\nv2.riskState.call()\nv1.recordPositiveTest(dummyCreds.address)\n*/\n\npragma solidity ^0.8.0;\n\nimport \"../contracts/Visit.sol\";\nimport \"../contracts/Ownable.sol\";\n\ncontract Place is Ownable, Interfaces.PlaceIf {\n    Visit[] private visits;\n    address recognisedAuthority;\n    \n    constructor(address _recognisedAuthority) {\n        recognisedAuthority = _recognisedAuthority;\n    } \n\n    /* Internally used only for notifyRisk calls */\n    function closeTo(uint timestamp, uint otherTimestamp) internal pure returns (bool) {\n        if (timestamp < otherTimestamp && (otherTimestamp - timestamp < 86400 * 14)) {\n            return true;\n        }\n        if (otherTimestamp <= timestamp && (timestamp - otherTimestamp < 86400 * 14)) {\n            return true;\n        }\n        return false;\n    } \n    \n    /*Called by health authority*/\n    function notifyRisk(Interfaces.VisitIf infectedVisit) external override {\n        require(msg.sender == recognisedAuthority, \"Place: caller is not a recognised authority\");\n\n        bool trackedVisit = false;\n        for (uint i = 0; i < visits.length; i ++) {\n            trackedVisit = trackedVisit || (visits[i] == infectedVisit);\n        }\n        require(trackedVisit, \"Place: caller is not a tracked visit\");\n\n        for (uint i = 0; i < visits.length; i ++) {\n            Visit currVisit = visits[i];\n            if (closeTo(currVisit.getTimestamp(), infectedVisit.getTimestamp())) {\n                currVisit.notifyRisk();\n            }\n        }\n    }\n\n    event visitFromEvent(address user, Interfaces.VisitIf newVisit);\n    \n    function visitFrom(address user, uint timestamp) external onlyOwner override returns(Interfaces.VisitIf) {\n        Visit newVisit = new Visit(this, user, timestamp);\n        visits.push(newVisit);\n        emit visitFromEvent(user, newVisit);\n        return newVisit;\n    }\n    \n    function clean() external override onlyOwner {\n        Visit[] memory updatedVisits;\n        for (uint i = 0; i < visits.length; i ++) {\n            if (closeTo(visits[i].getTimestamp(), block.timestamp)) {\n                Visit[] memory updatedVisits2 = new Visit[](updatedVisits.length+1);\n                for (uint j = 0; j < updatedVisits.length; j ++) {\n                    updatedVisits2[j] = updatedVisits[j];\n                }\n                updatedVisits2[updatedVisits.length] = visits[i];\n                updatedVisits = updatedVisits2;\n            }\n        }\n        visits = updatedVisits;\n    }\n}\n",
  "sourcePath": "/home/serban/Desktop/law-cs-project/contracts/Place.sol",
  "compiler": {
    "name": "solc",
    "version": "0.8.1+commit.df193b15.Emscripten.clang"
  },
  "schemaVersion": "3.3.3",
  "updatedAt": "2021-02-23T22:02:27.993Z",
  "devdoc": {
    "kind": "dev",
    "methods": {},
    "version": 1
  },
  "userdoc": {
    "kind": "user",
    "methods": {},
    "version": 1
  }
}