{
  "contractName": "Visit",
  "abi": [
    {
      "inputs": [
        {
          "internalType": "contract PlaceIf",
          "name": "_place",
          "type": "address"
        },
        {
          "internalType": "address",
          "name": "_user",
          "type": "address"
        },
        {
          "internalType": "uint256",
          "name": "_timestamp",
          "type": "uint256"
        }
      ],
      "stateMutability": "nonpayable",
      "type": "constructor"
    },
    {
      "inputs": [],
      "name": "owner",
      "outputs": [
        {
          "internalType": "address",
          "name": "",
          "type": "address"
        }
      ],
      "stateMutability": "view",
      "type": "function"
    },
    {
      "inputs": [],
      "name": "place",
      "outputs": [
        {
          "internalType": "contract PlaceIf",
          "name": "",
          "type": "address"
        }
      ],
      "stateMutability": "view",
      "type": "function"
    },
    {
      "inputs": [],
      "name": "riskState",
      "outputs": [
        {
          "internalType": "bool",
          "name": "",
          "type": "bool"
        }
      ],
      "stateMutability": "view",
      "type": "function"
    },
    {
      "inputs": [],
      "name": "user",
      "outputs": [
        {
          "internalType": "address",
          "name": "",
          "type": "address"
        }
      ],
      "stateMutability": "view",
      "type": "function"
    },
    {
      "inputs": [],
      "name": "getTimestamp",
      "outputs": [
        {
          "internalType": "uint256",
          "name": "",
          "type": "uint256"
        }
      ],
      "stateMutability": "view",
      "type": "function"
    },
    {
      "inputs": [],
      "name": "notifyRisk",
      "outputs": [],
      "stateMutability": "nonpayable",
      "type": "function"
    }
  ],
  "bytecode": "0x608060405234801561001057600080fd5b506040516106583803806106588339818101604052810190610032919061015c565b336000806101000a81548173ffffffffffffffffffffffffffffffffffffffff021916908373ffffffffffffffffffffffffffffffffffffffff16021790555060008060146101000a81548160ff02191690831515021790555082600160006101000a81548173ffffffffffffffffffffffffffffffffffffffff021916908373ffffffffffffffffffffffffffffffffffffffff16021790555081600260006101000a81548173ffffffffffffffffffffffffffffffffffffffff021916908373ffffffffffffffffffffffffffffffffffffffff1602179055508060038190555050505061023e565b60008151905061012c816101f9565b92915050565b60008151905061014181610210565b92915050565b60008151905061015681610227565b92915050565b60008060006060848603121561017157600080fd5b600061017f86828701610132565b93505060206101908682870161011d565b92505060406101a186828701610147565b9150509250925092565b60006101b6826101cf565b9050919050565b60006101c8826101ab565b9050919050565b600073ffffffffffffffffffffffffffffffffffffffff82169050919050565b6000819050919050565b610202816101ab565b811461020d57600080fd5b50565b610219816101bd565b811461022457600080fd5b50565b610230816101ef565b811461023b57600080fd5b50565b61040b8061024d6000396000f3fe608060405234801561001057600080fd5b50600436106100625760003560e01c8063188ec356146100675780633b59b823146100855780634f8632ba1461008f5780638da5cb5b146100ad5780638e145714146100cb57806393cca918146100e9575b600080fd5b61006f610107565b60405161007c9190610314565b60405180910390f35b61008d610111565b005b6100976101bc565b6040516100a491906102a3565b60405180910390f35b6100b56101e2565b6040516100c291906102a3565b60405180910390f35b6100d361020b565b6040516100e091906102be565b60405180910390f35b6100f161021e565b6040516100fe91906102d9565b60405180910390f35b6000600354905090565b3373ffffffffffffffffffffffffffffffffffffffff1660008054906101000a900473ffffffffffffffffffffffffffffffffffffffff1673ffffffffffffffffffffffffffffffffffffffff161461019f576040517f08c379a0000000000000000000000000000000000000000000000000000000008152600401610196906102f4565b60405180910390fd5b6001600060146101000a81548160ff021916908315150217905550565b600260009054906101000a900473ffffffffffffffffffffffffffffffffffffffff1681565b60008060009054906101000a900473ffffffffffffffffffffffffffffffffffffffff16905090565b600060149054906101000a900460ff1681565b600160009054906101000a900473ffffffffffffffffffffffffffffffffffffffff1681565b61024d81610340565b82525050565b61025c81610352565b82525050565b61026b81610388565b82525050565b600061027e60208361032f565b9150610289826103ac565b602082019050919050565b61029d8161037e565b82525050565b60006020820190506102b86000830184610244565b92915050565b60006020820190506102d36000830184610253565b92915050565b60006020820190506102ee6000830184610262565b92915050565b6000602082019050818103600083015261030d81610271565b9050919050565b60006020820190506103296000830184610294565b92915050565b600082825260208201905092915050565b600061034b8261035e565b9050919050565b60008115159050919050565b600073ffffffffffffffffffffffffffffffffffffffff82169050919050565b6000819050919050565b60006103938261039a565b9050919050565b60006103a58261035e565b9050919050565b7f4f776e61626c653a2063616c6c6572206973206e6f7420746865206f776e657260008201525056fea2646970667358221220f217cdf85f45e0ba6fdbbc28df35603a940450ebd6c3e25dee1ecb74112347fc64736f6c63430008010033",
  "immutableReferences": {},
  "source": "// SPDX-License-Identifier: UNLICENSED\npragma solidity ^0.8.0;\n\nimport * as Interfaces from \"../contracts/Interfaces.sol\";\nimport \"../contracts/Ownable.sol\";\n\ncontract Visit is Ownable, Interfaces.VisitIf {\n    bool public riskState;\n    Interfaces.PlaceIf public place;\n    address public user;\n    uint private timestamp;\n   \n    constructor(Interfaces.PlaceIf _place, address _user, uint _timestamp) {\n        riskState = false;\n        place = _place;\n        user = _user;\n        timestamp = _timestamp;\n    }\n\n    function getTimestamp() external override view returns(uint) {\n        return timestamp;\n    }\n   \n    function notifyRisk() external override onlyOwner {\n        riskState = true;\n    }\n}\n",
  "sourcePath": "/home/serban/Desktop/law-cs-project/contracts/Visit.sol",
  "compiler": {
    "name": "solc",
    "version": "0.8.1+commit.df193b15.Emscripten.clang"
  },
  "schemaVersion": "3.3.3",
  "updatedAt": "2021-02-23T21:56:54.556Z",
  "devdoc": {
    "kind": "dev",
    "methods": {},
    "version": 1
  },
  "userdoc": {
    "kind": "user",
    "methods": {},
    "version": 1
  }
}