{
  "contractName": "DateTime",
  "abi": [
    {
      "inputs": [
        {
          "internalType": "uint256",
          "name": "timestamp",
          "type": "uint256"
        },
        {
          "internalType": "uint256",
          "name": "otherTimestamp",
          "type": "uint256"
        }
      ],
      "name": "closeTo",
      "outputs": [
        {
          "internalType": "bool",
          "name": "",
          "type": "bool"
        }
      ],
      "stateMutability": "pure",
      "type": "function"
    },
    {
      "inputs": [
        {
          "internalType": "uint16",
          "name": "year",
          "type": "uint16"
        }
      ],
      "name": "isLeapYear",
      "outputs": [
        {
          "internalType": "bool",
          "name": "",
          "type": "bool"
        }
      ],
      "stateMutability": "pure",
      "type": "function"
    },
    {
      "inputs": [
        {
          "internalType": "uint256",
          "name": "year",
          "type": "uint256"
        }
      ],
      "name": "leapYearsBefore",
      "outputs": [
        {
          "internalType": "uint256",
          "name": "",
          "type": "uint256"
        }
      ],
      "stateMutability": "pure",
      "type": "function"
    },
    {
      "inputs": [
        {
          "internalType": "uint8",
          "name": "month",
          "type": "uint8"
        },
        {
          "internalType": "uint16",
          "name": "year",
          "type": "uint16"
        }
      ],
      "name": "getDaysInMonth",
      "outputs": [
        {
          "internalType": "uint8",
          "name": "",
          "type": "uint8"
        }
      ],
      "stateMutability": "pure",
      "type": "function"
    },
    {
      "inputs": [
        {
          "internalType": "uint256",
          "name": "timestamp",
          "type": "uint256"
        }
      ],
      "name": "getYear",
      "outputs": [
        {
          "internalType": "uint16",
          "name": "",
          "type": "uint16"
        }
      ],
      "stateMutability": "pure",
      "type": "function"
    },
    {
      "inputs": [
        {
          "internalType": "uint256",
          "name": "timestamp",
          "type": "uint256"
        }
      ],
      "name": "getMonth",
      "outputs": [
        {
          "internalType": "uint8",
          "name": "",
          "type": "uint8"
        }
      ],
      "stateMutability": "pure",
      "type": "function"
    },
    {
      "inputs": [
        {
          "internalType": "uint256",
          "name": "timestamp",
          "type": "uint256"
        }
      ],
      "name": "getDay",
      "outputs": [
        {
          "internalType": "uint8",
          "name": "",
          "type": "uint8"
        }
      ],
      "stateMutability": "pure",
      "type": "function"
    },
    {
      "inputs": [
        {
          "internalType": "uint256",
          "name": "timestamp",
          "type": "uint256"
        }
      ],
      "name": "getHour",
      "outputs": [
        {
          "internalType": "uint8",
          "name": "",
          "type": "uint8"
        }
      ],
      "stateMutability": "pure",
      "type": "function"
    },
    {
      "inputs": [
        {
          "internalType": "uint256",
          "name": "timestamp",
          "type": "uint256"
        }
      ],
      "name": "getMinute",
      "outputs": [
        {
          "internalType": "uint8",
          "name": "",
          "type": "uint8"
        }
      ],
      "stateMutability": "pure",
      "type": "function"
    },
    {
      "inputs": [
        {
          "internalType": "uint256",
          "name": "timestamp",
          "type": "uint256"
        }
      ],
      "name": "getSecond",
      "outputs": [
        {
          "internalType": "uint8",
          "name": "",
          "type": "uint8"
        }
      ],
      "stateMutability": "pure",
      "type": "function"
    },
    {
      "inputs": [
        {
          "internalType": "uint256",
          "name": "timestamp",
          "type": "uint256"
        }
      ],
      "name": "getWeekday",
      "outputs": [
        {
          "internalType": "uint8",
          "name": "",
          "type": "uint8"
        }
      ],
      "stateMutability": "pure",
      "type": "function"
    },
    {
      "inputs": [
        {
          "internalType": "uint16",
          "name": "year",
          "type": "uint16"
        },
        {
          "internalType": "uint8",
          "name": "month",
          "type": "uint8"
        },
        {
          "internalType": "uint8",
          "name": "day",
          "type": "uint8"
        },
        {
          "internalType": "uint8",
          "name": "hour",
          "type": "uint8"
        },
        {
          "internalType": "uint8",
          "name": "minute",
          "type": "uint8"
        }
      ],
      "name": "toTimestamp",
      "outputs": [
        {
          "internalType": "uint256",
          "name": "timestamp",
          "type": "uint256"
        }
      ],
      "stateMutability": "pure",
      "type": "function"
    },
    {
      "inputs": [
        {
          "internalType": "uint16",
          "name": "year",
          "type": "uint16"
        },
        {
          "internalType": "uint8",
          "name": "month",
          "type": "uint8"
        },
        {
          "internalType": "uint8",
          "name": "day",
          "type": "uint8"
        },
        {
          "internalType": "uint8",
          "name": "hour",
          "type": "uint8"
        }
      ],
      "name": "toTimestamp",
      "outputs": [
        {
          "internalType": "uint256",
          "name": "timestamp",
          "type": "uint256"
        }
      ],
      "stateMutability": "pure",
      "type": "function"
    },
    {
      "inputs": [
        {
          "internalType": "uint16",
          "name": "year",
          "type": "uint16"
        },
        {
          "internalType": "uint8",
          "name": "month",
          "type": "uint8"
        },
        {
          "internalType": "uint8",
          "name": "day",
          "type": "uint8"
        }
      ],
      "name": "toTimestamp",
      "outputs": [
        {
          "internalType": "uint256",
          "name": "timestamp",
          "type": "uint256"
        }
      ],
      "stateMutability": "pure",
      "type": "function"
    },
    {
      "inputs": [
        {
          "internalType": "uint16",
          "name": "year",
          "type": "uint16"
        },
        {
          "internalType": "uint8",
          "name": "month",
          "type": "uint8"
        },
        {
          "internalType": "uint8",
          "name": "day",
          "type": "uint8"
        },
        {
          "internalType": "uint8",
          "name": "hour",
          "type": "uint8"
        },
        {
          "internalType": "uint8",
          "name": "minute",
          "type": "uint8"
        },
        {
          "internalType": "uint8",
          "name": "second",
          "type": "uint8"
        }
      ],
      "name": "toTimestamp",
      "outputs": [
        {
          "internalType": "uint256",
          "name": "timestamp",
          "type": "uint256"
        }
      ],
      "stateMutability": "pure",
      "type": "function"
    }
  ],
  "bytecode": "0x608060405234801561001057600080fd5b506116a3806100206000396000f3fe608060405234801561001057600080fd5b50600436106100f55760003560e01c80638c8d98a011610097578063a6f0e57711610066578063a6f0e5771461030a578063b19999371461033a578063b238ad0e1461036a578063fa93f8831461039a576100f5565b80638c8d98a01461024a5780639054bdec1461027a57806392d66313146102aa578063a324ad24146102da576100f5565b806362ba9687116100d357806362ba96871461018a57806365c72840146101ba5780637f791833146101ea5780638aa001fc1461021a576100f5565b80631e13603f146100fa5780633e239e1a1461012a5780634ac1ad781461015a575b600080fd5b610114600480360381019061010f9190611245565b6103ca565b60405161012191906112f9565b60405180910390f35b610144600480360381019061013f919061121c565b610444565b604051610151919061134a565b60405180910390f35b610174600480360381019061016f919061121c565b610471565b604051610181919061134a565b60405180910390f35b6101a4600480360381019061019f919061111c565b6104a1565b6040516101b1919061132f565b60405180910390f35b6101d460048036038101906101cf919061121c565b6104bd565b6040516101e1919061134a565b60405180910390f35b61020460048036038101906101ff91906110b9565b6104d3565b604051610211919061132f565b60405180910390f35b610234600480360381019061022f919061121c565b6104ee565b604051610241919061134a565b60405180910390f35b610264600480360381019061025f919061106a565b610504565b604051610271919061132f565b60405180910390f35b610294600480360381019061028f9190611193565b61051f565b6040516102a1919061132f565b60405180910390f35b6102c460048036038101906102bf919061121c565b610a9e565b6040516102d19190611314565b60405180910390f35b6102f460048036038101906102ef919061121c565b610bb5565b604051610301919061134a565b60405180910390f35b610324600480360381019061031f9190611041565b610bcb565b60405161033191906112f9565b60405180910390f35b610354600480360381019061034f919061121c565b610c3a565b604051610361919061132f565b60405180910390f35b610384600480360381019061037f9190611281565b610c8e565b604051610391919061134a565b60405180910390f35b6103b460048036038101906103af919061121c565b610d5a565b6040516103c1919061134a565b60405180910390f35b600081831080156103f45750600e620151806103e691906113ec565b83836103f2919061147a565b105b15610402576001905061043e565b82821115801561042b5750600e6201518061041d91906113ec565b8284610429919061147a565b105b15610439576001905061043e565b600090505b92915050565b60006018603c808461045691906113bb565b61046091906113bb565b61046a9190611599565b9050919050565b600060076004620151808461048691906113bb565b6104909190611365565b61049a9190611599565b9050919050565b60006104b28686868686600061051f565b905095945050505050565b60006104c882610d7b565b604001519050919050565b60006104e48585858560008061051f565b9050949350505050565b6000603c826104fd9190611599565b9050919050565b6000610516848484600080600061051f565b90509392505050565b6000806107b290505b8761ffff168161ffff1610156105835761054181610bcb565b1561055d576301e28500826105569190611365565b9150610570565b6301e133808261056d9190611365565b91505b808061057b90611513565b915050610528565b61058b610f8c565b601f816000600c81106105c7577f4e487b7100000000000000000000000000000000000000000000000000000000600052603260045260246000fd5b602002019060ff16908160ff16815250506105e189610bcb565b1561063857601d816001600c8110610622577f4e487b7100000000000000000000000000000000000000000000000000000000600052603260045260246000fd5b602002019060ff16908160ff1681525050610686565b601c816001600c8110610674577f4e487b7100000000000000000000000000000000000000000000000000000000600052603260045260246000fd5b602002019060ff16908160ff16815250505b601f816002600c81106106c2577f4e487b7100000000000000000000000000000000000000000000000000000000600052603260045260246000fd5b602002019060ff16908160ff1681525050601e816003600c811061070f577f4e487b7100000000000000000000000000000000000000000000000000000000600052603260045260246000fd5b602002019060ff16908160ff1681525050601f816004600c811061075c577f4e487b7100000000000000000000000000000000000000000000000000000000600052603260045260246000fd5b602002019060ff16908160ff1681525050601e816005600c81106107a9577f4e487b7100000000000000000000000000000000000000000000000000000000600052603260045260246000fd5b602002019060ff16908160ff1681525050601f816006600c81106107f6577f4e487b7100000000000000000000000000000000000000000000000000000000600052603260045260246000fd5b602002019060ff16908160ff1681525050601f816007600c8110610843577f4e487b7100000000000000000000000000000000000000000000000000000000600052603260045260246000fd5b602002019060ff16908160ff1681525050601e816008600c8110610890577f4e487b7100000000000000000000000000000000000000000000000000000000600052603260045260246000fd5b602002019060ff16908160ff1681525050601f816009600c81106108dd577f4e487b7100000000000000000000000000000000000000000000000000000000600052603260045260246000fd5b602002019060ff16908160ff1681525050601e81600a600c811061092a577f4e487b7100000000000000000000000000000000000000000000000000000000600052603260045260246000fd5b602002019060ff16908160ff1681525050601f81600b600c8110610977577f4e487b7100000000000000000000000000000000000000000000000000000000600052603260045260246000fd5b602002019060ff16908160ff1681525050600191505b8760ff168261ffff161015610a1b57806001836109aa9190611446565b61ffff16600c81106109e5577f4e487b7100000000000000000000000000000000000000000000000000000000600052603260045260246000fd5b602002015160ff16620151806109fb91906113ec565b83610a069190611365565b92508180610a1390611513565b92505061098d565b600187610a2891906114ae565b60ff1662015180610a3991906113ec565b83610a449190611365565b92508560ff16610e10610a5791906113ec565b83610a629190611365565b92508460ff16603c610a7491906113ec565b83610a7f9190611365565b92508360ff1683610a909190611365565b925050509695505050505050565b600080600090506000806301e1338085610ab891906113bb565b6107b261ffff16610ac99190611365565b9150610ada6107b261ffff16610c3a565b610ae78361ffff16610c3a565b610af1919061147a565b9050806301e28500610b0391906113ec565b83610b0e9190611365565b9250806107b283610b1f9190611446565b61ffff16610b2d919061147a565b6301e13380610b3c91906113ec565b83610b479190611365565b92505b84831115610baa57610b67600183610b629190611446565b610bcb565b15610b83576301e2850083610b7c919061147a565b9250610b96565b6301e1338083610b93919061147a565b92505b600182610ba39190611446565b9150610b4a565b819350505050919050565b6000610bc082610d7b565b602001519050919050565b600080600483610bdb9190611568565b61ffff1614610bed5760009050610c35565b6000606483610bfc9190611568565b61ffff1614610c0e5760019050610c35565b600061019083610c1e9190611568565b61ffff1614610c305760009050610c35565b600190505b919050565b6000600182610c49919061147a565b915061019082610c5991906113bb565b606483610c6691906113bb565b600484610c7391906113bb565b610c7d919061147a565b610c879190611365565b9050919050565b600060018360ff161480610ca5575060038360ff16145b80610cb3575060058360ff16145b80610cc1575060078360ff16145b80610ccf575060088360ff16145b80610cdd5750600a8360ff16145b80610ceb5750600c8360ff16145b15610cf957601f9050610d54565b60048360ff161480610d0e575060068360ff16145b80610d1c575060098360ff16145b80610d2a5750600b8360ff16145b15610d3857601e9050610d54565b610d4182610bcb565b15610d4f57601d9050610d54565b601c90505b92915050565b6000603c8083610d6a91906113bb565b610d749190611599565b9050919050565b610d83610faf565b60008080610d9085610a9e565b846000019061ffff16908161ffff1681525050610db26107b261ffff16610c3a565b610dc3856000015161ffff16610c3a565b610dcd919061147a565b9150816301e28500610ddf91906113ec565b83610dea9190611365565b9250816107b28560000151610dff9190611446565b61ffff16610e0d919061147a565b6301e13380610e1c91906113ec565b83610e279190611365565b92506000600191505b600c8260ff1611610ea757610e49828660000151610c8e565b60ff1662015180610e5a91906113ec565b9050858482610e699190611365565b1115610e865781856020019060ff16908160ff1681525050610ea7565b8084610e929190611365565b93508180610e9f9061153e565b925050610e30565b600191505b610ebe85602001518660000151610c8e565b60ff168260ff1611610f1b57858462015180610eda9190611365565b1115610ef75781856040019060ff16908160ff1681525050610f1b565b6201518084610f069190611365565b93508180610f139061153e565b925050610eac565b610f2486610444565b856060019060ff16908160ff1681525050610f3e86610d5a565b856080019060ff16908160ff1681525050610f58866104ee565b8560a0019060ff16908160ff1681525050610f7286610471565b8560c0019060ff16908160ff168152505050505050919050565b604051806101800160405280600c90602082028036833780820191505090505090565b6040518060e00160405280600061ffff168152602001600060ff168152602001600060ff168152602001600060ff168152602001600060ff168152602001600060ff168152602001600060ff1681525090565b60008135905061101181611628565b92915050565b6000813590506110268161163f565b92915050565b60008135905061103b81611656565b92915050565b60006020828403121561105357600080fd5b600061106184828501611002565b91505092915050565b60008060006060848603121561107f57600080fd5b600061108d86828701611002565b935050602061109e8682870161102c565b92505060406110af8682870161102c565b9150509250925092565b600080600080608085870312156110cf57600080fd5b60006110dd87828801611002565b94505060206110ee8782880161102c565b93505060406110ff8782880161102c565b92505060606111108782880161102c565b91505092959194509250565b600080600080600060a0868803121561113457600080fd5b600061114288828901611002565b95505060206111538882890161102c565b94505060406111648882890161102c565b93505060606111758882890161102c565b92505060806111868882890161102c565b9150509295509295909350565b60008060008060008060c087890312156111ac57600080fd5b60006111ba89828a01611002565b96505060206111cb89828a0161102c565b95505060406111dc89828a0161102c565b94505060606111ed89828a0161102c565b93505060806111fe89828a0161102c565b92505060a061120f89828a0161102c565b9150509295509295509295565b60006020828403121561122e57600080fd5b600061123c84828501611017565b91505092915050565b6000806040838503121561125857600080fd5b600061126685828601611017565b925050602061127785828601611017565b9150509250929050565b6000806040838503121561129457600080fd5b60006112a28582860161102c565b92505060206112b385828601611002565b9150509250929050565b6112c6816114e2565b82525050565b6112d5816114ee565b82525050565b6112e4816114fc565b82525050565b6112f381611506565b82525050565b600060208201905061130e60008301846112bd565b92915050565b600060208201905061132960008301846112cc565b92915050565b600060208201905061134460008301846112db565b92915050565b600060208201905061135f60008301846112ea565b92915050565b6000611370826114fc565b915061137b836114fc565b9250827fffffffffffffffffffffffffffffffffffffffffffffffffffffffffffffffff038211156113b0576113af6115ca565b5b828201905092915050565b60006113c6826114fc565b91506113d1836114fc565b9250826113e1576113e06115f9565b5b828204905092915050565b60006113f7826114fc565b9150611402836114fc565b9250817fffffffffffffffffffffffffffffffffffffffffffffffffffffffffffffffff048311821515161561143b5761143a6115ca565b5b828202905092915050565b6000611451826114ee565b915061145c836114ee565b92508282101561146f5761146e6115ca565b5b828203905092915050565b6000611485826114fc565b9150611490836114fc565b9250828210156114a3576114a26115ca565b5b828203905092915050565b60006114b982611506565b91506114c483611506565b9250828210156114d7576114d66115ca565b5b828203905092915050565b60008115159050919050565b600061ffff82169050919050565b6000819050919050565b600060ff82169050919050565b600061151e826114ee565b915061ffff821415611533576115326115ca565b5b600182019050919050565b600061154982611506565b915060ff82141561155d5761155c6115ca565b5b600182019050919050565b6000611573826114ee565b915061157e836114ee565b92508261158e5761158d6115f9565b5b828206905092915050565b60006115a4826114fc565b91506115af836114fc565b9250826115bf576115be6115f9565b5b828206905092915050565b7f4e487b7100000000000000000000000000000000000000000000000000000000600052601160045260246000fd5b7f4e487b7100000000000000000000000000000000000000000000000000000000600052601260045260246000fd5b611631816114ee565b811461163c57600080fd5b50565b611648816114fc565b811461165357600080fd5b50565b61165f81611506565b811461166a57600080fd5b5056fea264697066735822122078eae8e16aa8f56f23efe23db2c3cb6eac52f9c8f26ec5e172438aca06ede0e564736f6c63430008010033",
  "immutableReferences": {},
  "source": "// SPDX-License-Identifier: UNLICENSED\npragma solidity ^0.8.0;\n\ncontract DateTime {\n        /*\n         *  Date and Time utilities for ethereum contracts\n         *\n         */\n        struct _DateTime {\n                uint16 year;\n                uint8 month;\n                uint8 day;\n                uint8 hour;\n                uint8 minute;\n                uint8 second;\n                uint8 weekday;\n        }\n\n        uint constant DAY_IN_SECONDS = 86400;\n        uint constant YEAR_IN_SECONDS = 31536000;\n        uint constant LEAP_YEAR_IN_SECONDS = 31622400;\n\n        uint constant HOUR_IN_SECONDS = 3600;\n        uint constant MINUTE_IN_SECONDS = 60;\n\n        uint16 constant ORIGIN_YEAR = 1970;\n\n        function closeTo(uint timestamp, uint otherTimestamp) public pure returns (bool) {\n            if (timestamp < otherTimestamp && (otherTimestamp - timestamp < DAY_IN_SECONDS * 14)) {\n                return true;\n            }\n            if (otherTimestamp <= timestamp && (timestamp - otherTimestamp < DAY_IN_SECONDS * 14)) {\n                return true;\n            }\n            return false;\n        } \n\n        function isLeapYear(uint16 year) public pure returns (bool) {\n                if (year % 4 != 0) {\n                        return false;\n                }\n                if (year % 100 != 0) {\n                        return true;\n                }\n                if (year % 400 != 0) {\n                        return false;\n                }\n                return true;\n        }\n\n        function leapYearsBefore(uint year) public pure returns (uint) {\n                year -= 1;\n                return year / 4 - year / 100 + year / 400;\n        }\n\n        function getDaysInMonth(uint8 month, uint16 year) public pure returns (uint8) {\n                if (month == 1 || month == 3 || month == 5 || month == 7 || month == 8 || month == 10 || month == 12) {\n                        return 31;\n                }\n                else if (month == 4 || month == 6 || month == 9 || month == 11) {\n                        return 30;\n                }\n                else if (isLeapYear(year)) {\n                        return 29;\n                }\n                else {\n                        return 28;\n                }\n        }\n\n        function parseTimestamp(uint timestamp) internal pure returns (_DateTime memory dt) {\n                uint secondsAccountedFor = 0;\n                uint buf;\n                uint8 i;\n\n                // Year\n                dt.year = getYear(timestamp);\n                buf = leapYearsBefore(dt.year) - leapYearsBefore(ORIGIN_YEAR);\n\n                secondsAccountedFor += LEAP_YEAR_IN_SECONDS * buf;\n                secondsAccountedFor += YEAR_IN_SECONDS * (dt.year - ORIGIN_YEAR - buf);\n\n                // Month\n                uint secondsInMonth;\n                for (i = 1; i <= 12; i++) {\n                        secondsInMonth = DAY_IN_SECONDS * getDaysInMonth(i, dt.year);\n                        if (secondsInMonth + secondsAccountedFor > timestamp) {\n                                dt.month = i;\n                                break;\n                        }\n                        secondsAccountedFor += secondsInMonth;\n                }\n\n                // Day\n                for (i = 1; i <= getDaysInMonth(dt.month, dt.year); i++) {\n                        if (DAY_IN_SECONDS + secondsAccountedFor > timestamp) {\n                                dt.day = i;\n                                break;\n                        }\n                        secondsAccountedFor += DAY_IN_SECONDS;\n                }\n\n                // Hour\n                dt.hour = getHour(timestamp);\n\n                // Minute\n                dt.minute = getMinute(timestamp);\n\n                // Second\n                dt.second = getSecond(timestamp);\n\n                // Day of week.\n                dt.weekday = getWeekday(timestamp);\n        }\n\n        function getYear(uint timestamp) public pure returns (uint16) {\n                uint secondsAccountedFor = 0;\n                uint16 year;\n                uint numLeapYears;\n\n                // Year\n                year = uint16(ORIGIN_YEAR + timestamp / YEAR_IN_SECONDS);\n                numLeapYears = leapYearsBefore(year) - leapYearsBefore(ORIGIN_YEAR);\n\n                secondsAccountedFor += LEAP_YEAR_IN_SECONDS * numLeapYears;\n                secondsAccountedFor += YEAR_IN_SECONDS * (year - ORIGIN_YEAR - numLeapYears);\n\n                while (secondsAccountedFor > timestamp) {\n                        if (isLeapYear(uint16(year - 1))) {\n                                secondsAccountedFor -= LEAP_YEAR_IN_SECONDS;\n                        }\n                        else {\n                                secondsAccountedFor -= YEAR_IN_SECONDS;\n                        }\n                        year -= 1;\n                }\n                return year;\n        }\n\n        function getMonth(uint timestamp) public pure returns (uint8) {\n                return parseTimestamp(timestamp).month;\n        }\n\n        function getDay(uint timestamp) public pure returns (uint8) {\n                return parseTimestamp(timestamp).day;\n        }\n\n        function getHour(uint timestamp) public pure returns (uint8) {\n                return uint8((timestamp / 60 / 60) % 24);\n        }\n\n        function getMinute(uint timestamp) public pure returns (uint8) {\n                return uint8((timestamp / 60) % 60);\n        }\n\n        function getSecond(uint timestamp) public pure returns (uint8) {\n                return uint8(timestamp % 60);\n        }\n\n        function getWeekday(uint timestamp) public pure returns (uint8) {\n                return uint8((timestamp / DAY_IN_SECONDS + 4) % 7);\n        }\n\n        function toTimestamp(uint16 year, uint8 month, uint8 day) public pure returns (uint timestamp) {\n                return toTimestamp(year, month, day, 0, 0, 0);\n        }\n\n        function toTimestamp(uint16 year, uint8 month, uint8 day, uint8 hour) public pure returns (uint timestamp) {\n                return toTimestamp(year, month, day, hour, 0, 0);\n        }\n\n        function toTimestamp(uint16 year, uint8 month, uint8 day, uint8 hour, uint8 minute) public pure returns (uint timestamp) {\n                return toTimestamp(year, month, day, hour, minute, 0);\n        }\n\n        function toTimestamp(uint16 year, uint8 month, uint8 day, uint8 hour, uint8 minute, uint8 second) public pure returns (uint timestamp) {\n                uint16 i;\n\n                // Year\n                for (i = ORIGIN_YEAR; i < year; i++) {\n                        if (isLeapYear(i)) {\n                                timestamp += LEAP_YEAR_IN_SECONDS;\n                        }\n                        else {\n                                timestamp += YEAR_IN_SECONDS;\n                        }\n                }\n\n                // Month\n                uint8[12] memory monthDayCounts;\n                monthDayCounts[0] = 31;\n                if (isLeapYear(year)) {\n                        monthDayCounts[1] = 29;\n                }\n                else {\n                        monthDayCounts[1] = 28;\n                }\n                monthDayCounts[2] = 31;\n                monthDayCounts[3] = 30;\n                monthDayCounts[4] = 31;\n                monthDayCounts[5] = 30;\n                monthDayCounts[6] = 31;\n                monthDayCounts[7] = 31;\n                monthDayCounts[8] = 30;\n                monthDayCounts[9] = 31;\n                monthDayCounts[10] = 30;\n                monthDayCounts[11] = 31;\n\n                for (i = 1; i < month; i++) {\n                        timestamp += DAY_IN_SECONDS * monthDayCounts[i - 1];\n                }\n\n                // Day\n                timestamp += DAY_IN_SECONDS * (day - 1);\n\n                // Hour\n                timestamp += HOUR_IN_SECONDS * (hour);\n\n                // Minute\n                timestamp += MINUTE_IN_SECONDS * (minute);\n\n                // Second\n                timestamp += second;\n\n                return timestamp;\n        }\n}\n",
  "sourcePath": "/home/serban/Desktop/law-cs-project/contracts/DateTime.sol",
  "compiler": {
    "name": "solc",
    "version": "0.8.1+commit.df193b15.Emscripten.clang"
  },
  "schemaVersion": "3.3.3",
  "updatedAt": "2021-02-23T20:22:51.000Z",
  "devdoc": {
    "kind": "dev",
    "methods": {},
    "version": 1
  },
  "userdoc": {
    "kind": "user",
    "methods": {},
    "version": 1
  }
}