{
  "contractName": "Place",
  "abi": [
    {
      "inputs": [],
      "stateMutability": "nonpayable",
      "type": "constructor"
    },
    {
      "inputs": [],
      "name": "owner",
      "outputs": [
        {
          "internalType": "address",
          "name": "",
          "type": "address"
        }
      ],
      "stateMutability": "view",
      "type": "function",
      "constant": true
    },
    {
      "inputs": [
        {
          "internalType": "contract VisitIf",
          "name": "infectedVisit",
          "type": "address"
        }
      ],
      "name": "notifyRisk",
      "outputs": [],
      "stateMutability": "nonpayable",
      "type": "function"
    },
    {
      "inputs": [
        {
          "internalType": "address",
          "name": "user",
          "type": "address"
        },
        {
          "internalType": "uint256",
          "name": "timestamp",
          "type": "uint256"
        }
      ],
      "name": "visitFrom",
      "outputs": [
        {
          "internalType": "contract VisitIf",
          "name": "",
          "type": "address"
        }
      ],
      "stateMutability": "nonpayable",
      "type": "function"
    },
    {
      "inputs": [],
      "name": "clean",
      "outputs": [],
      "stateMutability": "nonpayable",
      "type": "function"
    }
  ],
  "bytecode": "0x608060405234801561001057600080fd5b50336000806101000a81548173ffffffffffffffffffffffffffffffffffffffff021916908373ffffffffffffffffffffffffffffffffffffffff1602179055506118ae806100606000396000f3fe60806040523480156200001157600080fd5b5060043610620000525760003560e01c80634c6c8f0514620000575780638da5cb5b146200008d578063a5ac84c414620000af578063fc4333cd14620000cf575b600080fd5b6200007560048036038101906200006f919062000a3a565b620000db565b60405162000084919062000c47565b60405180910390f35b620000976200021c565b604051620000a6919062000bed565b60405180910390f35b620000cd6004803603810190620000c7919062000aa7565b62000245565b005b620000d962000607565b005b60003373ffffffffffffffffffffffffffffffffffffffff1660008054906101000a900473ffffffffffffffffffffffffffffffffffffffff1673ffffffffffffffffffffffffffffffffffffffff16146200016e576040517f08c379a0000000000000000000000000000000000000000000000000000000008152600401620001659062000c64565b60405180910390fd5b6000308484604051620001819062000943565b6200018f9392919062000c0a565b604051809103906000f080158015620001ac573d6000803e3d6000fd5b5090506001819080600181540180825580915050600190039060005260206000200160009091909190916101000a81548173ffffffffffffffffffffffffffffffffffffffff021916908373ffffffffffffffffffffffffffffffffffffffff1602179055508091505092915050565b60008060009054906101000a900473ffffffffffffffffffffffffffffffffffffffff16905090565b6000805b6001805490508110156200030c578180620002f457508273ffffffffffffffffffffffffffffffffffffffff1660018281548110620002b1577f4e487b7100000000000000000000000000000000000000000000000000000000600052603260045260246000fd5b9060005260206000200160009054906101000a900473ffffffffffffffffffffffffffffffffffffffff1673ffffffffffffffffffffffffffffffffffffffff16145b91508080620003039062000d94565b91505062000249565b508062000350576040517f08c379a0000000000000000000000000000000000000000000000000000000008152600401620003479062000c86565b60405180910390fd5b60005b60018054905081101562000602576000600182815481106200039e577f4e487b7100000000000000000000000000000000000000000000000000000000600052603260045260246000fd5b9060005260206000200160009054906101000a900473ffffffffffffffffffffffffffffffffffffffff169050600260009054906101000a900473ffffffffffffffffffffffffffffffffffffffff1673ffffffffffffffffffffffffffffffffffffffff16631e13603f8273ffffffffffffffffffffffffffffffffffffffff1663188ec3566040518163ffffffff1660e01b815260040160206040518083038186803b1580156200045057600080fd5b505afa15801562000465573d6000803e3d6000fd5b505050506040513d601f19601f820116820180604052508101906200048b919062000ad3565b8673ffffffffffffffffffffffffffffffffffffffff1663188ec3566040518163ffffffff1660e01b8152600401602060405180830381600087803b158015620004d457600080fd5b505af1158015620004e9573d6000803e3d6000fd5b505050506040513d601f19601f820116820180604052508101906200050f919062000ad3565b6040518363ffffffff1660e01b81526004016200052e92919062000ca8565b60206040518083038186803b1580156200054757600080fd5b505afa1580156200055c573d6000803e3d6000fd5b505050506040513d601f19601f8201168201806040525081019062000582919062000a7b565b15620005eb578073ffffffffffffffffffffffffffffffffffffffff16633b59b8236040518163ffffffff1660e01b8152600401600060405180830381600087803b158015620005d157600080fd5b505af1158015620005e6573d6000803e3d6000fd5b505050505b508080620005f99062000d94565b91505062000353565b505050565b3373ffffffffffffffffffffffffffffffffffffffff1660008054906101000a900473ffffffffffffffffffffffffffffffffffffffff1673ffffffffffffffffffffffffffffffffffffffff161462000698576040517f08c379a00000000000000000000000000000000000000000000000000000000081526004016200068f9062000c64565b60405180910390fd5b600080600090505b6001805490508110156200092b57600260009054906101000a900473ffffffffffffffffffffffffffffffffffffffff1673ffffffffffffffffffffffffffffffffffffffff16631e13603f6001838154811062000727577f4e487b7100000000000000000000000000000000000000000000000000000000600052603260045260246000fd5b9060005260206000200160009054906101000a900473ffffffffffffffffffffffffffffffffffffffff1673ffffffffffffffffffffffffffffffffffffffff1663188ec3566040518163ffffffff1660e01b815260040160206040518083038186803b1580156200079857600080fd5b505afa158015620007ad573d6000803e3d6000fd5b505050506040513d601f19601f82011682018060405250810190620007d3919062000ad3565b426040518363ffffffff1660e01b8152600401620007f392919062000ca8565b60206040518083038186803b1580156200080c57600080fd5b505afa15801562000821573d6000803e3d6000fd5b505050506040513d601f19601f8201168201806040525081019062000847919062000a7b565b156200091557816001828154811062000889577f4e487b7100000000000000000000000000000000000000000000000000000000600052603260045260246000fd5b9060005260206000200160009054906101000a900473ffffffffffffffffffffffffffffffffffffffff169080600181540180825580915050600190039060005260206000200160009091909190916101000a81548173ffffffffffffffffffffffffffffffffffffffff021916908373ffffffffffffffffffffffffffffffffffffffff1602179055505b8080620009229062000d94565b915050620006a0565b508060019080546200093f92919062000951565b5050565b6109ff8062000e7a83390190565b828054828255906000526020600020908101928215620009955760005260206000209182015b828111156200099457825482559160010191906001019062000977565b5b509050620009a49190620009a8565b5090565b5b80821115620009c3576000816000905550600101620009a9565b5090565b600081359050620009d88162000e11565b92915050565b600081519050620009ef8162000e2b565b92915050565b60008135905062000a068162000e45565b92915050565b60008135905062000a1d8162000e5f565b92915050565b60008151905062000a348162000e5f565b92915050565b6000806040838503121562000a4e57600080fd5b600062000a5e85828601620009c7565b925050602062000a718582860162000a0c565b9150509250929050565b60006020828403121562000a8e57600080fd5b600062000a9e84828501620009de565b91505092915050565b60006020828403121562000aba57600080fd5b600062000aca84828501620009f5565b91505092915050565b60006020828403121562000ae657600080fd5b600062000af68482850162000a23565b91505092915050565b62000b0a8162000ce6565b82525050565b62000b1b8162000d44565b82525050565b62000b2c8162000d6c565b82525050565b600062000b4160208362000cd5565b91507f4f776e61626c653a2063616c6c6572206973206e6f7420746865206f776e65726000830152602082019050919050565b600062000b8360248362000cd5565b91507f506c6163653a2063616c6c6572206973206e6f74206120747261636b6564207660008301527f69736974000000000000000000000000000000000000000000000000000000006020830152604082019050919050565b62000be78162000d3a565b82525050565b600060208201905062000c04600083018462000aff565b92915050565b600060608201905062000c21600083018662000b10565b62000c30602083018562000aff565b62000c3f604083018462000bdc565b949350505050565b600060208201905062000c5e600083018462000b21565b92915050565b6000602082019050818103600083015262000c7f8162000b32565b9050919050565b6000602082019050818103600083015262000ca18162000b74565b9050919050565b600060408201905062000cbf600083018562000bdc565b62000cce602083018462000bdc565b9392505050565b600082825260208201905092915050565b600062000cf38262000d1a565b9050919050565b60008115159050919050565b600062000d138262000ce6565b9050919050565b600073ffffffffffffffffffffffffffffffffffffffff82169050919050565b6000819050919050565b600062000d518262000d58565b9050919050565b600062000d658262000d1a565b9050919050565b600062000d798262000d80565b9050919050565b600062000d8d8262000d1a565b9050919050565b600062000da18262000d3a565b91507fffffffffffffffffffffffffffffffffffffffffffffffffffffffffffffffff82141562000dd75762000dd662000de2565b5b600182019050919050565b7f4e487b7100000000000000000000000000000000000000000000000000000000600052601160045260246000fd5b62000e1c8162000ce6565b811462000e2857600080fd5b50565b62000e368162000cfa565b811462000e4257600080fd5b50565b62000e508162000d06565b811462000e5c57600080fd5b50565b62000e6a8162000d3a565b811462000e7657600080fd5b5056fe608060405234801561001057600080fd5b506040516109ff3803806109ff8339818101604052810190610032919061015c565b336000806101000a81548173ffffffffffffffffffffffffffffffffffffffff021916908373ffffffffffffffffffffffffffffffffffffffff16021790555060008060146101000a81548160ff02191690831515021790555082600160006101000a81548173ffffffffffffffffffffffffffffffffffffffff021916908373ffffffffffffffffffffffffffffffffffffffff16021790555081600260006101000a81548173ffffffffffffffffffffffffffffffffffffffff021916908373ffffffffffffffffffffffffffffffffffffffff1602179055508060038190555050505061023e565b60008151905061012c816101f9565b92915050565b60008151905061014181610210565b92915050565b60008151905061015681610227565b92915050565b60008060006060848603121561017157600080fd5b600061017f86828701610132565b93505060206101908682870161011d565b92505060406101a186828701610147565b9150509250925092565b60006101b6826101cf565b9050919050565b60006101c8826101ab565b9050919050565b600073ffffffffffffffffffffffffffffffffffffffff82169050919050565b6000819050919050565b610202816101ab565b811461020d57600080fd5b50565b610219816101bd565b811461022457600080fd5b50565b610230816101ef565b811461023b57600080fd5b50565b6107b28061024d6000396000f3fe608060405234801561001057600080fd5b506004361061007d5760003560e01c8063717e93521161005b578063717e9352146100c85780638da5cb5b146100e45780638e1457141461010257806393cca918146101205761007d565b8063188ec356146100825780633b59b823146100a05780634f8632ba146100aa575b600080fd5b61008a61013e565b6040516100979190610680565b60405180910390f35b6100a8610148565b005b6100b26101f3565b6040516100bf91906105d4565b60405180910390f35b6100e260048036038101906100dd91906104ba565b610219565b005b6100ec610405565b6040516100f991906105d4565b60405180910390f35b61010a61042e565b60405161011791906105ef565b60405180910390f35b610128610441565b604051610135919061060a565b60405180910390f35b6000600354905090565b3373ffffffffffffffffffffffffffffffffffffffff1660008054906101000a900473ffffffffffffffffffffffffffffffffffffffff1673ffffffffffffffffffffffffffffffffffffffff16146101d6576040517f08c379a00000000000000000000000000000000000000000000000000000000081526004016101cd90610660565b60405180910390fd5b6001600060146101000a81548160ff021916908315150217905550565b600260009054906101000a900473ffffffffffffffffffffffffffffffffffffffff1681565b3373ffffffffffffffffffffffffffffffffffffffff16600260009054906101000a900473ffffffffffffffffffffffffffffffffffffffff1673ffffffffffffffffffffffffffffffffffffffff16146102a9576040517f08c379a00000000000000000000000000000000000000000000000000000000081526004016102a090610640565b60405180910390fd5b8073ffffffffffffffffffffffffffffffffffffffff166363a9c3d7600260009054906101000a900473ffffffffffffffffffffffffffffffffffffffff166040518263ffffffff1660e01b815260040161030491906105d4565b60206040518083038186803b15801561031c57600080fd5b505afa158015610330573d6000803e3d6000fd5b505050506040513d601f19601f820116820180604052508101906103549190610491565b15610402576001600060146101000a81548160ff021916908315150217905550600160009054906101000a900473ffffffffffffffffffffffffffffffffffffffff1673ffffffffffffffffffffffffffffffffffffffff1663a5ac84c4306040518263ffffffff1660e01b81526004016103cf9190610625565b600060405180830381600087803b1580156103e957600080fd5b505af11580156103fd573d6000803e3d6000fd5b505050505b50565b60008060009054906101000a900473ffffffffffffffffffffffffffffffffffffffff16905090565b600060149054906101000a900460ff1681565b600160009054906101000a900473ffffffffffffffffffffffffffffffffffffffff1681565b6000815190506104768161074e565b92915050565b60008135905061048b81610765565b92915050565b6000602082840312156104a357600080fd5b60006104b184828501610467565b91505092915050565b6000602082840312156104cc57600080fd5b60006104da8482850161047c565b91505092915050565b6104ec816106ac565b82525050565b6104fb816106be565b82525050565b61050a81610706565b82525050565b6105198161072a565b82525050565b600061052c60268361069b565b91507f56697369743a2063616c6c6572206973206e6f7420746865206f726967696e6160008301527f6c207573657200000000000000000000000000000000000000000000000000006020830152604082019050919050565b600061059260208361069b565b91507f4f776e61626c653a2063616c6c6572206973206e6f7420746865206f776e65726000830152602082019050919050565b6105ce816106fc565b82525050565b60006020820190506105e960008301846104e3565b92915050565b600060208201905061060460008301846104f2565b92915050565b600060208201905061061f6000830184610501565b92915050565b600060208201905061063a6000830184610510565b92915050565b600060208201905081810360008301526106598161051f565b9050919050565b6000602082019050818103600083015261067981610585565b9050919050565b600060208201905061069560008301846105c5565b92915050565b600082825260208201905092915050565b60006106b7826106dc565b9050919050565b60008115159050919050565b60006106d5826106ac565b9050919050565b600073ffffffffffffffffffffffffffffffffffffffff82169050919050565b6000819050919050565b600061071182610718565b9050919050565b6000610723826106dc565b9050919050565b60006107358261073c565b9050919050565b6000610747826106dc565b9050919050565b610757816106be565b811461076257600080fd5b50565b61076e816106ca565b811461077957600080fd5b5056fea264697066735822122062cf3b50c12282553d71cd6858fd0168812c7daa8d8aa3c3fb43ec141350734564736f6c63430008000033a2646970667358221220eecd712cfeba2835fd0dcee5281d2d58e7e6bac8b41d755760669653e0ef624d64736f6c63430008000033",
  "immutableReferences": {},
  "source": "// SPDX-License-Identifier: UNLICENSED\n/*\nmigrate\nlet accounts = await web3.eth.getAccounts()\nlet instance = await Place.deployed()\ninstance.visitFrom(accounts[0],1000)\n*/\n\npragma solidity ^0.8.0;\n\nimport \"Visit.sol\";\nimport \"Ownable.sol\";\nimport \"DateTime.sol\";\n\ncontract Place is Ownable, Interfaces.PlaceIf {\n    Visit[] private visits;\n    DateTime dateTime;\n    \n    constructor() {} \n    \n    function notifyRisk(Interfaces.VisitIf infectedVisit) external override {\n        bool trackedVisit = false;\n        for (uint i = 0; i < visits.length; i ++) {\n            trackedVisit = trackedVisit || (visits[i] == infectedVisit);\n        }\n        require(trackedVisit, \"Place: caller is not a tracked visit\");\n\n        for (uint i = 0; i < visits.length; i ++) {\n            Visit currVisit = visits[i];\n            if (dateTime.closeTo(currVisit.getTimestamp(), infectedVisit.getTimestamp())) {\n                currVisit.notifyRisk();\n            }\n        }\n    }\n    \n    function visitFrom(address user, uint timestamp) external onlyOwner override returns(Interfaces.VisitIf) {\n        Visit newVisit = new Visit(this, user, timestamp);\n        visits.push(newVisit);\n        return newVisit;\n    }\n    \n    function clean() external override onlyOwner {\n        Visit[] storage updatedVisits;\n        for (uint i = 0; i < visits.length; i ++) {\n            if (dateTime.closeTo(visits[i].getTimestamp(), block.timestamp)) {\n                updatedVisits.push(visits[i]);\n            }\n        }\n        visits = updatedVisits;\n    }\n}\n",
  "sourcePath": "/home/alex/Desktop/OxfordMaterials/Law & CS/Track and Trace app/law-cs-project/contracts/Place.sol",
  "compiler": {
    "name": "solc",
    "version": "0.8.0+commit.c7dfd78e.Emscripten.clang"
  },
  "schemaVersion": "3.3.3",
  "updatedAt": "2021-01-18T15:16:07.759Z",
  "networkType": "ethereum",
  "devdoc": {
    "kind": "dev",
    "methods": {},
    "version": 1
  },
  "userdoc": {
    "kind": "user",
    "methods": {},
    "version": 1
  }
}