{
  "contractName": "Simple",
  "abi": [
    {
      "inputs": [
        {
          "internalType": "string",
          "name": "_data",
          "type": "string"
        }
      ],
      "stateMutability": "nonpayable",
      "type": "constructor"
    },
    {
      "inputs": [],
      "name": "data",
      "outputs": [
        {
          "internalType": "string",
          "name": "",
          "type": "string"
        }
      ],
      "stateMutability": "view",
      "type": "function"
    },
    {
      "inputs": [],
      "name": "owner",
      "outputs": [
        {
          "internalType": "address",
          "name": "",
          "type": "address"
        }
      ],
      "stateMutability": "view",
      "type": "function"
    }
  ],
  "bytecode": "0x60806040526040518060400160405280600481526020017f74657374000000000000000000000000000000000000000000000000000000008152506001908051906020019061004f9291906100db565b5034801561005c57600080fd5b5060405161066d38038061066d833981810160405281019061007e91906101e6565b336000806101000a81548173ffffffffffffffffffffffffffffffffffffffff021916908373ffffffffffffffffffffffffffffffffffffffff16021790555080600190805190602001906100d49291906100db565b5050610382565b8280546100e7906102b0565b90600052602060002090601f0160209004810192826101095760008555610150565b82601f1061012257805160ff1916838001178555610150565b82800160010185558215610150579182015b8281111561014f578251825591602001919060010190610134565b5b50905061015d9190610161565b5090565b5b8082111561017a576000816000905550600101610162565b5090565b600061019161018c8461024c565b610227565b9050828152602081018484840111156101a957600080fd5b6101b484828561027d565b509392505050565b600082601f8301126101cd57600080fd5b81516101dd84826020860161017e565b91505092915050565b6000602082840312156101f857600080fd5b600082015167ffffffffffffffff81111561021257600080fd5b61021e848285016101bc565b91505092915050565b6000610231610242565b905061023d82826102e2565b919050565b6000604051905090565b600067ffffffffffffffff82111561026757610266610342565b5b61027082610371565b9050602081019050919050565b60005b8381101561029b578082015181840152602081019050610280565b838111156102aa576000848401525b50505050565b600060028204905060018216806102c857607f821691505b602082108114156102dc576102db610313565b5b50919050565b6102eb82610371565b810181811067ffffffffffffffff8211171561030a57610309610342565b5b80604052505050565b7f4e487b7100000000000000000000000000000000000000000000000000000000600052602260045260246000fd5b7f4e487b7100000000000000000000000000000000000000000000000000000000600052604160045260246000fd5b6000601f19601f8301169050919050565b6102dc806103916000396000f3fe608060405234801561001057600080fd5b50600436106100365760003560e01c806373d4a13a1461003b5780638da5cb5b14610059575b600080fd5b610043610077565b6040516100509190610191565b60405180910390f35b610061610105565b60405161006e9190610176565b60405180910390f35b6001805461008490610234565b80601f01602080910402602001604051908101604052809291908181526020018280546100b090610234565b80156100fd5780601f106100d2576101008083540402835291602001916100fd565b820191906000526020600020905b8154815290600101906020018083116100e057829003601f168201915b505050505081565b60008060009054906101000a900473ffffffffffffffffffffffffffffffffffffffff16905090565b610137816101cf565b82525050565b6000610148826101b3565b61015281856101be565b9350610162818560208601610201565b61016b81610295565b840191505092915050565b600060208201905061018b600083018461012e565b92915050565b600060208201905081810360008301526101ab818461013d565b905092915050565b600081519050919050565b600082825260208201905092915050565b60006101da826101e1565b9050919050565b600073ffffffffffffffffffffffffffffffffffffffff82169050919050565b60005b8381101561021f578082015181840152602081019050610204565b8381111561022e576000848401525b50505050565b6000600282049050600182168061024c57607f821691505b602082108114156102605761025f610266565b5b50919050565b7f4e487b7100000000000000000000000000000000000000000000000000000000600052602260045260246000fd5b6000601f19601f830116905091905056fea26469706673582212206223e89e23de470ca955aa7038843da2ebe87a44a6ac112b56cfee741b80180964736f6c63430008010033",
  "immutableReferences": {},
  "source": "pragma solidity ^0.8.0;\n\nimport \"../contracts/Ownable.sol\";\n\ncontract Simple is Ownable {\n    string public data = \"test\";\n    constructor(string memory _data) {\n        data = _data;\n    } \n}\n",
  "sourcePath": "/home/serban/Desktop/law-cs-project/contracts/Simple.sol",
  "compiler": {
    "name": "solc",
    "version": "0.8.1+commit.df193b15.Emscripten.clang"
  },
  "schemaVersion": "3.3.3",
  "updatedAt": "2021-02-23T21:58:37.319Z",
  "devdoc": {
    "kind": "dev",
    "methods": {},
    "version": 1
  },
  "userdoc": {
    "kind": "user",
    "methods": {},
    "version": 1
  }
}