{
  "contractName": "visit",
  "abi": [
    {
      "inputs": [
        {
          "internalType": "contract PlaceIf",
          "name": "_place",
          "type": "address"
        },
        {
          "internalType": "address",
          "name": "_user",
          "type": "address"
        },
        {
          "internalType": "uint256",
          "name": "_timestamp",
          "type": "uint256"
        }
      ],
      "stateMutability": "nonpayable",
      "type": "constructor"
    },
    {
      "inputs": [],
      "name": "owner",
      "outputs": [
        {
          "internalType": "address",
          "name": "",
          "type": "address"
        }
      ],
      "stateMutability": "view",
      "type": "function"
    },
    {
      "inputs": [],
      "name": "place",
      "outputs": [
        {
          "internalType": "contract PlaceIf",
          "name": "",
          "type": "address"
        }
      ],
      "stateMutability": "view",
      "type": "function"
    },
    {
      "inputs": [],
      "name": "riskState",
      "outputs": [
        {
          "internalType": "bool",
          "name": "",
          "type": "bool"
        }
      ],
      "stateMutability": "view",
      "type": "function"
    },
    {
      "inputs": [],
      "name": "user",
      "outputs": [
        {
          "internalType": "address",
          "name": "",
          "type": "address"
        }
      ],
      "stateMutability": "view",
      "type": "function"
    },
    {
      "inputs": [],
      "name": "getTimestamp",
      "outputs": [
        {
          "internalType": "uint256",
          "name": "",
          "type": "uint256"
        }
      ],
      "stateMutability": "view",
      "type": "function"
    },
    {
      "inputs": [
        {
          "internalType": "contract NHSCredentialsIf",
          "name": "nhsCredentials",
          "type": "address"
        }
      ],
      "name": "recordPositiveTest",
      "outputs": [],
      "stateMutability": "nonpayable",
      "type": "function"
    },
    {
      "inputs": [],
      "name": "notifyRisk",
      "outputs": [],
      "stateMutability": "nonpayable",
      "type": "function"
    }
  ],
  "bytecode": "0x608060405234801561001057600080fd5b506040516109ff3803806109ff8339818101604052810190610032919061015c565b336000806101000a81548173ffffffffffffffffffffffffffffffffffffffff021916908373ffffffffffffffffffffffffffffffffffffffff16021790555060008060146101000a81548160ff02191690831515021790555082600160006101000a81548173ffffffffffffffffffffffffffffffffffffffff021916908373ffffffffffffffffffffffffffffffffffffffff16021790555081600260006101000a81548173ffffffffffffffffffffffffffffffffffffffff021916908373ffffffffffffffffffffffffffffffffffffffff1602179055508060038190555050505061023e565b60008151905061012c816101f9565b92915050565b60008151905061014181610210565b92915050565b60008151905061015681610227565b92915050565b60008060006060848603121561017157600080fd5b600061017f86828701610132565b93505060206101908682870161011d565b92505060406101a186828701610147565b9150509250925092565b60006101b6826101cf565b9050919050565b60006101c8826101ab565b9050919050565b600073ffffffffffffffffffffffffffffffffffffffff82169050919050565b6000819050919050565b610202816101ab565b811461020d57600080fd5b50565b610219816101bd565b811461022457600080fd5b50565b610230816101ef565b811461023b57600080fd5b50565b6107b28061024d6000396000f3fe608060405234801561001057600080fd5b506004361061007d5760003560e01c8063717e93521161005b578063717e9352146100c85780638da5cb5b146100e45780638e1457141461010257806393cca918146101205761007d565b8063188ec356146100825780633b59b823146100a05780634f8632ba146100aa575b600080fd5b61008a61013e565b6040516100979190610680565b60405180910390f35b6100a8610148565b005b6100b26101f3565b6040516100bf91906105d4565b60405180910390f35b6100e260048036038101906100dd91906104ba565b610219565b005b6100ec610405565b6040516100f991906105d4565b60405180910390f35b61010a61042e565b60405161011791906105ef565b60405180910390f35b610128610441565b604051610135919061060a565b60405180910390f35b6000600354905090565b3373ffffffffffffffffffffffffffffffffffffffff1660008054906101000a900473ffffffffffffffffffffffffffffffffffffffff1673ffffffffffffffffffffffffffffffffffffffff16146101d6576040517f08c379a00000000000000000000000000000000000000000000000000000000081526004016101cd90610660565b60405180910390fd5b6001600060146101000a81548160ff021916908315150217905550565b600260009054906101000a900473ffffffffffffffffffffffffffffffffffffffff1681565b3373ffffffffffffffffffffffffffffffffffffffff16600260009054906101000a900473ffffffffffffffffffffffffffffffffffffffff1673ffffffffffffffffffffffffffffffffffffffff16146102a9576040517f08c379a00000000000000000000000000000000000000000000000000000000081526004016102a090610640565b60405180910390fd5b8073ffffffffffffffffffffffffffffffffffffffff166363a9c3d7600260009054906101000a900473ffffffffffffffffffffffffffffffffffffffff166040518263ffffffff1660e01b815260040161030491906105d4565b60206040518083038186803b15801561031c57600080fd5b505afa158015610330573d6000803e3d6000fd5b505050506040513d601f19601f820116820180604052508101906103549190610491565b15610402576001600060146101000a81548160ff021916908315150217905550600160009054906101000a900473ffffffffffffffffffffffffffffffffffffffff1673ffffffffffffffffffffffffffffffffffffffff1663a5ac84c4306040518263ffffffff1660e01b81526004016103cf9190610625565b600060405180830381600087803b1580156103e957600080fd5b505af11580156103fd573d6000803e3d6000fd5b505050505b50565b60008060009054906101000a900473ffffffffffffffffffffffffffffffffffffffff16905090565b600060149054906101000a900460ff1681565b600160009054906101000a900473ffffffffffffffffffffffffffffffffffffffff1681565b6000815190506104768161074e565b92915050565b60008135905061048b81610765565b92915050565b6000602082840312156104a357600080fd5b60006104b184828501610467565b91505092915050565b6000602082840312156104cc57600080fd5b60006104da8482850161047c565b91505092915050565b6104ec816106ac565b82525050565b6104fb816106be565b82525050565b61050a81610706565b82525050565b6105198161072a565b82525050565b600061052c60268361069b565b91507f56697369743a2063616c6c6572206973206e6f7420746865206f726967696e6160008301527f6c207573657200000000000000000000000000000000000000000000000000006020830152604082019050919050565b600061059260208361069b565b91507f4f776e61626c653a2063616c6c6572206973206e6f7420746865206f776e65726000830152602082019050919050565b6105ce816106fc565b82525050565b60006020820190506105e960008301846104e3565b92915050565b600060208201905061060460008301846104f2565b92915050565b600060208201905061061f6000830184610501565b92915050565b600060208201905061063a6000830184610510565b92915050565b600060208201905081810360008301526106598161051f565b9050919050565b6000602082019050818103600083015261067981610585565b9050919050565b600060208201905061069560008301846105c5565b92915050565b600082825260208201905092915050565b60006106b7826106dc565b9050919050565b60008115159050919050565b60006106d5826106ac565b9050919050565b600073ffffffffffffffffffffffffffffffffffffffff82169050919050565b6000819050919050565b600061071182610718565b9050919050565b6000610723826106dc565b9050919050565b60006107358261073c565b9050919050565b6000610747826106dc565b9050919050565b610757816106be565b811461076257600080fd5b50565b61076e816106ca565b811461077957600080fd5b5056fea264697066735822122008f58fd3e80348e99dda52795c9d1db8e544136cdb16b7837cf2e21b1d4ca20164736f6c63430008000033",
  "immutableReferences": {},
  "source": "// SPDX-License-Identifier: UNLICENSED\npragma solidity ^0.8.0;\n\nimport * as Interfaces from \"interfaces.sol\";\n// import \"place.sol\";\nimport \"ownable.sol\";\nimport \"NHSCredentials.sol\";\n\ncontract visit is Ownable, Interfaces.VisitIf {\n    bool public riskState;\n    Interfaces.PlaceIf public place;\n    address public user;\n    uint private timestamp;\n   \n    constructor(Interfaces.PlaceIf _place, address _user, uint _timestamp) {\n        riskState = false;\n        place = _place;\n        user = _user;\n        timestamp = _timestamp;\n    }\n\n    function getTimestamp() external override view returns(uint) {\n        return timestamp;\n    }\n   \n    function recordPositiveTest(Interfaces.NHSCredentialsIf nhsCredentials) external override {\n        require(user == msg.sender, \"Visit: caller is not the original user\");\n\n        if (nhsCredentials.verify(user)) {\n            riskState = true;\n            place.notifyRisk(this);\n        }\n    }\n   \n    function notifyRisk() external override onlyOwner {\n        riskState = true;\n    }\n}\n",
  "sourcePath": "/home/alex/Desktop/OxfordMaterials/Law & CS/Track and Trace app/law-cs-project/contracts/visit.sol",
  "compiler": {
    "name": "solc",
    "version": "0.8.0+commit.c7dfd78e.Emscripten.clang"
  },
  "schemaVersion": "3.3.3",
  "updatedAt": "2021-01-18T15:07:30.595Z",
  "devdoc": {
    "kind": "dev",
    "methods": {},
    "version": 1
  },
  "userdoc": {
    "kind": "user",
    "methods": {},
    "version": 1
  }
}